{
  "contractName": "Database_Search",
  "abi": [
    {
      "constant": true,
      "inputs": [
        {
          "internalType": "uint256",
          "name": "",
          "type": "uint256"
        }
      ],
      "name": "users",
      "outputs": [
        {
          "internalType": "string",
          "name": "username",
          "type": "string"
        },
        {
          "internalType": "string",
          "name": "password",
          "type": "string"
        }
      ],
      "payable": false,
      "stateMutability": "view",
      "type": "function"
    },
    {
      "constant": false,
      "inputs": [
        {
          "internalType": "string",
          "name": "username",
          "type": "string"
        },
        {
          "internalType": "string",
          "name": "password",
          "type": "string"
        }
      ],
      "name": "Register",
      "outputs": [],
      "payable": false,
      "stateMutability": "nonpayable",
      "type": "function"
    },
    {
      "constant": false,
      "inputs": [
        {
          "internalType": "string",
          "name": "username",
          "type": "string"
        },
        {
          "internalType": "string",
          "name": "password",
          "type": "string"
        },
        {
          "internalType": "string",
          "name": "tablename",
          "type": "string"
        },
        {
          "internalType": "string",
          "name": "Key",
          "type": "string"
        },
        {
          "internalType": "string[]",
          "name": "input",
          "type": "string[]"
        }
      ],
      "name": "Insert",
      "outputs": [],
      "payable": false,
      "stateMutability": "nonpayable",
      "type": "function"
    },
    {
      "constant": true,
      "inputs": [
        {
          "internalType": "string",
          "name": "username",
          "type": "string"
        },
        {
          "internalType": "string",
          "name": "tablename",
          "type": "string"
        },
        {
          "internalType": "string",
          "name": "Enc_keyword",
          "type": "string"
        }
      ],
      "name": "Search_Keyword",
      "outputs": [
        {
          "internalType": "string",
          "name": "",
          "type": "string"
        },
        {
          "internalType": "string",
          "name": "",
          "type": "string"
        }
      ],
      "payable": false,
      "stateMutability": "view",
      "type": "function"
    }
  ],
  "bytecode": "0x608060405234801561001057600080fd5b5061129d806100206000396000f3fe608060405234801561001057600080fd5b506004361061004c5760003560e01c8063365b98b214610051578063a73a3daf1461007b578063d6192e2914610090578063eb1ed55c146100a3575b600080fd5b61006461005f366004610e23565b6100b6565b6040516100729291906110f5565b60405180910390f35b61008e610089366004610d3c565b610201565b005b61008e61009e366004610c44565b6103cf565b6100646100b1366004610cab565b61047f565b600081815481106100c357fe5b60009182526020918290206002918202018054604080516001831615610100026000190190921693909304601f8101859004850282018501909352828152909350918391908301828280156101595780601f1061012e57610100808354040283529160200191610159565b820191906000526020600020905b81548152906001019060200180831161013c57829003601f168201915b505050505090806001018054600181600116156101000203166002900480601f0160208091040260200160405190810160405280929190818152602001828054600181600116156101000203166002900480156101f75780601f106101cc576101008083540402835291602001916101f7565b820191906000526020600020905b8154815290600101906020018083116101da57829003601f168201915b5050505050905082565b600061020c8661081d565b90508460405160200161021f91906110d6565b604051602081830303815290604052805190602001206000828154811061024257fe5b906000526020600020906002020160010160405160200161026391906110e9565b6040516020818303038152906040528051906020012014156103af5760018660405161028f91906110d6565b9081526020016040518091039020846040516102ab91906110d6565b908152604051908190036020019020546103925760028251816102ca57fe5b06156102f15760405162461bcd60e51b81526004016102e89061116a565b60405180910390fd5b6102f96109ff565b60018082526020820185905260408083018590525182919061031c908a906110d6565b90815260200160405180910390208660405161033891906110d6565b908152602001604051809103902060008201518160000155602082015181600101908051906020019061036c929190610a20565b5060408201518051610388916002840191602090910190610a9e565b50905050506103aa565b60405162461bcd60e51b81526004016102e89061111a565b6103c7565b60405162461bcd60e51b81526004016102e89061112a565b505050505050565b60006103da836108c9565b9050806104625760408051808201909152838152602080820184905260008054600181018083559180528351805192949360029092027f290decd9548b62a8d60345a988386fc84ba6bc95484008f6362f93160ef3e56301926104409284920190610a20565b5060208281015180516104599260018501920190610a20565b5050505061047a565b60405162461bcd60e51b81526004016102e89061114a565b505050565b606080600061048d8661081d565b905060018660405161049f91906110d6565b9081526020016040518091039020856040516104bb91906110d6565b90815260405190819003602001902054156103925760006105e7856001896040516104e691906110d6565b90815260200160405180910390208860405161050291906110d6565b9081526020016040518091039020600201805480602002602001604051908101604052809291908181526020016000905b828210156105de5760008481526020908190208301805460408051601f60026000196101006001871615020190941693909304928301859004850281018501909152818152928301828280156105ca5780601f1061059f576101008083540402835291602001916105ca565b820191906000526020600020905b8154815290600101906020018083116105ad57829003601f168201915b505050505081526020019060010190610533565b5050505061095d565b9050600180886040516105fa91906110d6565b90815260200160405180910390208760405161061691906110d6565b90815260405190819003602001902060020154038114156106495760405162461bcd60e51b81526004016102e89061115a565b60018760405161065991906110d6565b90815260200160405180910390208660405161067591906110d6565b9081526020016040518091039020600201818154811061069157fe5b906000526020600020016001886040516106ab91906110d6565b9081526020016040518091039020876040516106c791906110d6565b908152602001604051809103902060020182600101815481106106e657fe5b600091825260209182902083546040805160026001841615610100026000190190931692909204601f810186900486028301860190915280825292909101929091849183018282801561077a5780601f1061074f5761010080835404028352916020019161077a565b820191906000526020600020905b81548152906001019060200180831161075d57829003601f168201915b5050845460408051602060026001851615610100026000190190941693909304601f8101849004840282018401909252818152959750869450925084019050828280156108085780601f106107dd57610100808354040283529160200191610808565b820191906000526020600020905b8154815290600101906020018083116107eb57829003601f168201915b50505050509050935093505050935093915050565b6000805b6000548110156108ab578260405160200161083c91906110d6565b604051602081830303815290604052805190602001206000828154811061085f57fe5b906000526020600020906002020160000160405160200161088091906110e9565b6040516020818303038152906040528051906020012014156108a35790506108c4565b600101610821565b5060405162461bcd60e51b81526004016102e89061113a565b919050565b600080805b60005481101561095657836040516020016108e991906110d6565b604051602081830303815290604052805190602001206000828154811061090c57fe5b906000526020600020906002020160000160405160200161092d91906110e9565b60405160208183030381529060405280519060200120141561094e57600191505b6001016108ce565b5092915050565b6000805b82518110156109e0578360405160200161097b91906110d6565b6040516020818303038152906040528051906020012083828151811061099d57fe5b60200260200101516040516020016109b591906110d6565b6040516020818303038152906040528051906020012014156109d85790506109f9565b600101610961565b5060405162461bcd60e51b81526004016102e89061115a565b92915050565b60405180606001604052806000815260200160608152602001606081525090565b828054600181600116156101000203166002900490600052602060002090601f016020900481019282601f10610a6157805160ff1916838001178555610a8e565b82800160010185558215610a8e579182015b82811115610a8e578251825591602001919060010190610a73565b50610a9a929150610af7565b5090565b828054828255906000526020600020908101928215610aeb579160200282015b82811115610aeb5782518051610adb918491602090910190610a20565b5091602001919060010190610abe565b50610a9a929150610b14565b610b1191905b80821115610a9a5760008155600101610afd565b90565b610b1191905b80821115610a9a576000610b2e8282610b37565b50600101610b1a565b50805460018160011615610100020316600290046000825580601f10610b5d5750610b7b565b601f016020900490600052602060002090810190610b7b9190610af7565b50565b600082601f830112610b8f57600080fd5b8135610ba2610b9d826111a0565b61117a565b81815260209384019390925082018360005b83811015610be05781358601610bca8882610bea565b8452506020928301929190910190600101610bb4565b5050505092915050565b600082601f830112610bfb57600080fd5b8135610c09610b9d826111c0565b91508082526020830160208301858383011115610c2557600080fd5b610c30838284611200565b50505092915050565b80356109f981611246565b60008060408385031215610c5757600080fd5b82356001600160401b03811115610c6d57600080fd5b610c7985828601610bea565b92505060208301356001600160401b03811115610c9557600080fd5b610ca185828601610bea565b9150509250929050565b600080600060608486031215610cc057600080fd5b83356001600160401b03811115610cd657600080fd5b610ce286828701610bea565b93505060208401356001600160401b03811115610cfe57600080fd5b610d0a86828701610bea565b92505060408401356001600160401b03811115610d2657600080fd5b610d3286828701610bea565b9150509250925092565b600080600080600060a08688031215610d5457600080fd5b85356001600160401b03811115610d6a57600080fd5b610d7688828901610bea565b95505060208601356001600160401b03811115610d9257600080fd5b610d9e88828901610bea565b94505060408601356001600160401b03811115610dba57600080fd5b610dc688828901610bea565b93505060608601356001600160401b03811115610de257600080fd5b610dee88828901610bea565b92505060808601356001600160401b03811115610e0a57600080fd5b610e1688828901610b7e565b9150509295509295909350565b600060208284031215610e3557600080fd5b6000610e418484610c39565b949350505050565b6000610e54826111f3565b610e5e81856111f7565b9350610e6e81856020860161120c565b610e778161123c565b9093019392505050565b6000610e8c826111f3565b610e9681856108c4565b9350610ea681856020860161120c565b9290920192915050565b600081546001811660008114610ecd5760018114610ef057610f2f565b607f6002830416610ede81876108c4565b60ff1984168152955085019250610f2f565b60028204610efe81876108c4565b9550610f09856111e7565b60005b82811015610f2857815488820152600190910190602001610f0c565b5050850192505b505092915050565b6000610f44602b836111f7565b7f546865207461626c656e616d6520666f7220757365726e616d6520616c72656181526a0323c9032bc34b9ba3990960ad1b602082015260400192915050565b6000610f91601e836111f7565b7f2057726f6e672050617373776f726420666f7220757365726e616d6520210000815260200192915050565b6000610fca601e836111f7565b7f5468697320757365726e616d6520646f6573206e6f7420657869737420210000815260200192915050565b6000611003601d836111f7565b7f54686520757365726e616d6520616c7265616479206578697374732120000000815260200192915050565b600061103c6038836111f7565b7f54686520456e635f4b6579776f726420646f6573206e6f74206578697374206981527f6e20757365726e616d652d3e7461626c656e616d652021200000000000000000602082015260400192915050565b600061109b6026836111f7565b7f54686520696e646578207461626c652069732077726f6e672f496e636f6d706c815265032ba329010960d51b602082015260400192915050565b60006110e28284610e81565b9392505050565b60006110e28284610eb0565b604080825281016111068185610e49565b90508181036020830152610e418184610e49565b602080825281016109f981610f37565b602080825281016109f981610f84565b602080825281016109f981610fbd565b602080825281016109f981610ff6565b602080825281016109f98161102f565b602080825281016109f98161108e565b6040518181016001600160401b038111828210171561119857600080fd5b604052919050565b60006001600160401b038211156111b657600080fd5b5060209081020190565b60006001600160401b038211156111d657600080fd5b506020601f91909101601f19160190565b60009081526020902090565b5190565b90815260200190565b82818337506000910152565b60005b8381101561122757818101518382015260200161120f565b83811115611236576000848401525b50505050565b601f01601f191690565b61124f81610b11565b8114610b7b57600080fdfea365627a7a72315820cb7ed233d096696f830f5066a514805455ee8e82912e97ea2465743b1da235636c6578706572696d656e74616cf564736f6c63430005100040",
  "source": " pragma solidity ^0.5.0;\r\n     pragma experimental ABIEncoderV2;\r\ncontract Database_Search{\r\n    \r\n     struct user{\r\n        string username;\r\n        string password;\r\n        \r\n    }\r\n        user[] public users;\r\n       mapping(string => mapping(string => Index_details)) details;\r\n       \r\n    struct Index_details{\r\n     uint flag;\r\n     string key;\r\n   //  mapping(string=>string)Index;\r\n     string[] Index;\r\n    }\r\n    \r\n    function Register(string memory username,string memory password) public{\r\n           uint i=findd_id(username);\r\n           if(i==0){\r\n               users.push(user(username,password));\r\n           }\r\n           else{\r\n               revert('The username already exists! ');\r\n           }\r\n                  \r\n    }\r\n    \r\n    function Insert(string memory username,string memory password,string memory tablename,string memory Key,string [] memory input) public{\r\n        uint i=find_id(username);\r\n         if(keccak256(abi.encodePacked(users[i].password))== keccak256(abi.encodePacked(password)))\r\n         {\r\n          if(details[username][tablename].flag==0){\r\n              if(input.length%2!=0)\r\n              {\r\n                  revert('The index table is wrong/Incomplete ! ');\r\n              }\r\n              Index_details memory p;\r\n              p.flag=1;\r\n              p.key=Key;\r\n            /*  string memory k;\r\n              string memory v;\r\n               for(uint i=0;i<input.length;i+=2){\r\n                   k=input[i];\r\n                   v=input[i+1];\r\n                   p.Index[k]=v;\r\n            } */\r\n            p.Index=input;\r\n              details[username][tablename]=p;\r\n          }   \r\n          else{\r\n               revert('The tablename for username already exists! ');\r\n          }\r\n         }\r\n         else{\r\n             revert(' Wrong Password for username !');\r\n         }\r\n         \r\n    }\r\n    \r\n    function Search_Keyword(string memory username, string memory tablename,string memory Enc_keyword)view public returns(string memory,string memory){\r\n         uint i=find_id(username);\r\n          if(details[username][tablename].flag!=0){\r\n             uint j=find_id_in_index(Enc_keyword,details[username][tablename].Index);\r\n             if(j==details[username][tablename].Index.length-1){\r\n                  revert('The Enc_Keyword does not exist in username->tablename ! ');\r\n             }\r\n             return (details[username][tablename].Index[j],details[username][tablename].Index[j+1]);\r\n              \r\n          }   \r\n          else{\r\n               revert('The tablename for username already exists! ');\r\n          }\r\n         \r\n    }\r\n    \r\n    \r\n     function find_id(string memory username)view internal returns(uint){\r\n            for(uint i=0;i<users.length;i++){\r\n                if(keccak256(abi.encodePacked(users[i].username))== keccak256(abi.encodePacked(username)))\r\n                {\r\n                    return i;\r\n                }\r\n            }\r\n            revert('This username does not exist !');\r\n        }\r\n        \r\n    function find_id_in_index(string memory Enc_Keyword,string [] memory str)view internal returns(uint){\r\n            for(uint i=0;i<str.length;i++){\r\n                if(keccak256(abi.encodePacked(str[i]))== keccak256(abi.encodePacked(Enc_Keyword)))\r\n                {\r\n                    return i;\r\n                }\r\n            }\r\n             revert('The Enc_Keyword does not exist in username->tablename ! ');\r\n        }\r\n    \r\n    function findd_id(string memory username)view internal returns(uint){\r\n             uint k=0;\r\n            for(uint i=0;i<users.length;i++){\r\n                if(keccak256(abi.encodePacked(users[i].username))== keccak256(abi.encodePacked(username)))\r\n                {\r\n                     k=1;\r\n                }\r\n            }\r\n            return k;\r\n           \r\n        }\r\n    \r\n    \r\n    \r\n    \r\n    \r\n    \r\n    \r\n}",
  "sourcePath": "C:/Users/Robins Singh/Desktop/btp/sem 8/Database_Search/Public_Dapp/contracts/Database_Search.sol",
  "compiler": {
    "name": "solc",
    "version": "0.5.16+commit.9c3226ce.Emscripten.clang"
  },
  "schemaVersion": "3.2.3",
  "updatedAt": "2021-11-23T09:32:33.749Z",
  "networkType": "ethereum",
  "devdoc": {
    "methods": {}
  },
  "userdoc": {
    "methods": {}
  }
}